S01B000032656E6B6F646572612B696E64696B616369612E73726563C6
S113000019C033C032C043C0AAC02FC02EC02DC0F7
S11300102CC02BC02AC029C028C027C026C025C098
S113002024C023C022C021C020C01FC01EC01DC0C8
S11300301CC01BC011241FBECFEFD4E0DEBFCDBF58
S113004011E0A0E0B1E0E2EEF7E002C005900D920D
S1130050A235B107D9F721E0A2E5B1E001C01D92B4
S1130060AE36B207E1F774D1BAC3CACFCF93C82F63
S11300708A3011F48DE0FADFE0ECF0E0808185FF56
S1130080FDCFC093C60080E090E0CF9108951F9209
S11300900F920FB60F9211242F934F935F936F9388
S11300A07F938F939F93AF93BF93EF93FF9323B16A
S11300B02370E09163014091640150916501609166
S11300C066017091670184E0E802F0011124E20FF7
S11300D0F11DEE0FFF1FEF5CFE4F80819181092E11
S11300E0000CAA0BBB0B840F951FA61FB71F809390
S11300F0640190936501A0936601B09367018091B8
S1130100640190916501A0916601B0916701AC0111
S1130110BD01440F551F661F771F840F951FA61F2F
S1130120B71F880F991FAA1FBB1F80935F0190936D
S11301306001A0936101B093620120936301FF9178
S1130140EF91BF91AF919F918F917F916F915F914B
S11301504F912F910F900FBE0F901F9018951F92E3
S11301600F920FB60F9211242F933F934F935F93E7
S11301706F937F938F939F93AF93BF93CF93EF939B
S1130180FF93C6B1C370E0915A0140915B01509155
S11301905C0160915D0170915E0184E0E802F00110
S11301A01124EC0FF11DEE0FFF1FEF5CFE4F808159
S11301B09181092E000CAA0BBB0B840F951FA61F5F
S11301C0B71F80935B0190935C01A0935D01B09392
S11301D05E0180915B0190915C01A0915D01B09101
S11301E05E01AC01BD01440F551F661F771F840FCC
S11301F0951FA61FB71F880F991FAA1FBB1F8093A7
S1130200560190935701A0935801B09359016091FE
S1130210560170915701809158019091590182D1F2
S11302202AE939E94BE152E409D220E030E044EB19
S113023053E4DDD044D16093520170935301809311
S1130240540190935501C0935A01FF91EF91CF91BE
S1130250BF91AF919F918F917F916F915F914F91DA
S11302603F912F910F900FBE0F901F901895EBE6C2
S1130270F0E0808183608083E8E6F0E08081816043
S11302808083ACE6B0E08C9183608C938081826043
S113029080830895E0ECF0E0908195FFFDCF80939A
S11302A0C60008950F931F93CF93DF9320E137E2A5
S11302B040E050E026D224E630E040E050E021D295
S11302C0022F162FC7E62C02D12D1124D595D595D2
S11302D027FDD39580E38D0FDDDFDD0F8D2F880F94
S11302E0880FD80F802F8D1B805DD4DF1C02C12D99
S11302F01124C595C59517FDC39580E38C0FCADFFE
S1130300CC0F8C2F880F880FC80F812F8C1B805D1A
S1130310C1DFDF91CF911F910F910895E5ECF0E0DB
S113032080818083E4ECF0E0808189618083E0EC6B
S1130330F0E080818083E1ECF0E08081886180835B
S1130340E2ECF0E080818083808186608083089580
S11303508EDF80E091E090936B0180936A01DEDF91
S11303608EE091E097DF78948FE493EC0197F1F7B6
S113037000C0000080E191E002D260915F017091C1
S1130380600180916101909162018CDF8FE493ECB4
S11303900197F1F700C0000089E191E0F0D160918C
S11303A056017091570180915801909159017ADF5B
S11303B08FE493EC0197F1F700C0000082E291E032
S11303C0DED160915201709153018091540190915A
S11303D0550168DF8FE493EC0197F1F700C000004A
S11303E08FE493EC0197F1F700C00000BDCF0CD06F
S11303F0EBC0E3D040F0DAD030F021F45F3F19F0E5
S1130400CCC0511115C1CFC0F0D098F39923C9F3D2
S11304105523B1F3951B550BBB27AA276217730706
S1130420840738F09F5F5F4F220F331F441FAA1FBA
S1130430A9F333D00E2E3AF0E0E830D0915050407A
S1130440E695001CCAF729D0FE2F27D0660F771F28
S1130450881FBB1F261737074807AB07B0E809F00A
S1130460BB0B802DBF01FF2793585F4F2AF09E3F9F
S1130470510568F092C0DCC05F3FECF3983EDCF3BA
S1130480869577956795B795F7959F5FC9F7880F18
S1130490911D9695879597F90895E1E0660F771F6A
S11304A0881FBB1F621773078407BA0720F0621BFB
S11304B0730B840BBA0BEE1F88F7E095089504D0F4
S11304C06894B111B5C0089598D088F09F5790F002
S11304D0B92F9927B751A0F0D1F0660F771F881F65
S11304E0991F1AF0BA95C9F712C0B13081F09FD0A4
S11304F0B1E008959CC0672F782F8827B85F39F042
S1130500B93FCCF3869577956795B395D9F73EF4C3
S113051090958095709561957F4F8F4F9F4F08956B
S1130520E89409C097FB3EF4909580957095619589
S11305307F4F8F4F9F4F9923A9F0F92F96E9BB273F
S11305409395F695879577956795B795F111F8CFBB
S1130550FAF4BB0F11F460FF1BC06F5F7F4F8F4F26
S11305609F4F16C0882311F096E911C0772321F01C
S11305709EE8872F762F05C0662371F096E8862FB4
S113058070E060E02AF09A95660F771F881FDAF70B
S1130590880F9695879597F9089597F99F6780E84E
S11305A070E060E008959FEF80EC089500240A94C1
S11305B01616170618060906089500240A9412163A
S11305C01306140605060895092E0394000C11F46D
S11305D0882352F0BB0F40F4BF2B11F460FF04C01A
S11305E06F5F7F4F8F4F9F4F089557FD9058440F73
S11305F0551F59F05F3F71F04795880F97FB991F7E
S113060061F09F3F79F0879508951216130614063A
S1130610551FF2CF4695F1DF08C0161617061806C7
S1130620991FF1CF86957105610508940895E894A2
S1130630BB2766277727CB0197F908950BD0C4CF42
S1130640B5DF28F0BADF18F0952309F0A6CFABCFB9
S11306501124EECFCADFA0F3959FD1F3950F50E09C
S1130660551F629FF001729FBB27F00DB11D639F60
S1130670AA27F00DB11DAA1F649F6627B00DA11D06
S1130680661F829F2227B00DA11D621F739FB00DAC
S1130690A11D621F839FA00D611D221F749F33271C
S11306A0A00D611D231F849F600D211D822F762FB5
S11306B06A2F11249F5750408AF0E1F088234AF0B2
S11306C0EE0FFF1FBB1F661F771F881F91505040FE
S11306D0A9F79E3F510570F060CFAACF5F3FECF3BE
S11306E0983EDCF3869577956795B795F795E795EA
S11306F09F5FC1F7FE2B880F911D9695879597F9FB
S11307000895052E97FB16F400940FD057FD05D0DD
S113071014D007FC02D046F408C05095409530959B
S113072021953F4F4F4F5F4F089590958095709559
S113073061957F4F8F4F9F4F0895A1E21A2EAA1BF8
S1130740BB1BFD010DC0AA1FBB1FEE1FFF1FA2177D
S1130750B307E407F50720F0A21BB30BE40BF50B7A
S1130760661F771F881F991F1A9469F76095709503
S1130770809590959B01AC01BD01CF0108950F9325
S11307801F93CF93DF93E0916A01F0916B01238172
S113079021FF1BC08C01D0E0C0E0F80181918F01E2
S11307A060916A0170916B01DB011896ED91FC91E7
S11307B01997882331F00995892B79F3DFEFCFEF6F
S11307C0ECCF8AE00995892B19F08FEF9FEF02C0D7
S11307D08D2F9C2FDF91CF911F910F910895F89445
S10507E0FFCF45
S11307E20000000200000000360000000000540077
S11307F20A20616E676C6531000A20616E676C6560
S113080232000A20706572656D657368656E69658C
S1130812000000FFFF01000000010000000000FFD3
S1130822FFFFFF00000000010000000100FFFF00C5
S10508320000C0
S9030000FC
